{
  "_format": "hh-sol-artifact-1",
  "contractName": "HelloWorld",
  "sourceName": "contracts/Helloworld.sol",
  "abi": [
    {
      "inputs": [],
      "stateMutability": "nonpayable",
      "type": "constructor"
    },
    {
      "inputs": [
        {
          "internalType": "string",
          "name": "",
          "type": "string"
        }
      ],
      "name": "Classinfo",
      "outputs": [
        {
          "internalType": "uint256",
          "name": "",
          "type": "uint256"
        }
      ],
      "stateMutability": "view",
      "type": "function"
    },
    {
      "inputs": [
        {
          "internalType": "string",
          "name": "_name",
          "type": "string"
        },
        {
          "internalType": "uint256",
          "name": "_classno",
          "type": "uint256"
        }
      ],
      "name": "addToclass",
      "outputs": [],
      "stateMutability": "nonpayable",
      "type": "function"
    },
    {
      "inputs": [
        {
          "internalType": "string",
          "name": "_namex",
          "type": "string"
        }
      ],
      "name": "readClass",
      "outputs": [
        {
          "internalType": "uint256",
          "name": "",
          "type": "uint256"
        }
      ],
      "stateMutability": "view",
      "type": "function"
    }
  ],
  "bytecode": "0x608060405234801561001057600080fd5b506032600081905550610494806100286000396000f3fe608060405234801561001057600080fd5b50600436106100415760003560e01c806304a91b6a146100465780634e851c7714610062578063eb2de70014610092575b600080fd5b610060600480360381019061005b919061020a565b6100c2565b005b61007c600480360381019061007791906101c9565b6100f6565b60405161008991906102b5565b60405180910390f35b6100ac60048036038101906100a791906101c9565b61011e565b6040516100b991906102b5565b60405180910390f35b600054816100d09190610347565b6001836040516100e0919061029e565b9081526020016040518091039020819055505050565b6000600182604051610108919061029e565b9081526020016040518091039020549050919050565b6001818051602081018201805184825260208301602085012081835280955050505050506000915090505481565b600061015f61015a84610301565b6102d0565b90508281526020810184848401111561017757600080fd5b6101828482856103a7565b509392505050565b600082601f83011261019b57600080fd5b81356101ab84826020860161014c565b91505092915050565b6000813590506101c381610447565b92915050565b6000602082840312156101db57600080fd5b600082013567ffffffffffffffff8111156101f557600080fd5b6102018482850161018a565b91505092915050565b6000806040838503121561021d57600080fd5b600083013567ffffffffffffffff81111561023757600080fd5b6102438582860161018a565b9250506020610254858286016101b4565b9150509250929050565b600061026982610331565b610273818561033c565b93506102838185602086016103b6565b80840191505092915050565b6102988161039d565b82525050565b60006102aa828461025e565b915081905092915050565b60006020820190506102ca600083018461028f565b92915050565b6000604051905081810181811067ffffffffffffffff821117156102f7576102f6610418565b5b8060405250919050565b600067ffffffffffffffff82111561031c5761031b610418565b5b601f19601f8301169050602081019050919050565b600081519050919050565b600081905092915050565b60006103528261039d565b915061035d8361039d565b9250827fffffffffffffffffffffffffffffffffffffffffffffffffffffffffffffffff03821115610392576103916103e9565b5b828201905092915050565b6000819050919050565b82818337600083830152505050565b60005b838110156103d45780820151818401526020810190506103b9565b838111156103e3576000848401525b50505050565b7f4e487b7100000000000000000000000000000000000000000000000000000000600052601160045260246000fd5b7f4e487b7100000000000000000000000000000000000000000000000000000000600052604160045260246000fd5b6104508161039d565b811461045b57600080fd5b5056fea26469706673582212204d61656d495d07b65e0ff44fde2c0330e856209cd9a06982b56a658af61e3d1564736f6c63430008000033",
  "linkReferences": {},
  "deployedLinkReferences": {}
}